{
  "_format": "hh-sol-artifact-1",
  "contractName": "AztecLendPortal",
  "sourceName": "contracts/AztecLendPortal.sol",
  "abi": [
    {
      "inputs": [
        {
          "internalType": "contract IERC20",
          "name": "",
          "type": "address"
        }
      ],
      "name": "UnsupportedAsset",
      "type": "error"
    },
    {
      "inputs": [],
      "name": "DAI",
      "outputs": [
        {
          "internalType": "address",
          "name": "",
          "type": "address"
        }
      ],
      "stateMutability": "view",
      "type": "function"
    },
    {
      "inputs": [],
      "name": "USDC",
      "outputs": [
        {
          "internalType": "address",
          "name": "",
          "type": "address"
        }
      ],
      "stateMutability": "view",
      "type": "function"
    },
    {
      "inputs": [],
      "name": "cUSDC",
      "outputs": [
        {
          "internalType": "contract IcUsdc",
          "name": "",
          "type": "address"
        }
      ],
      "stateMutability": "view",
      "type": "function"
    },
    {
      "inputs": [
        {
          "internalType": "address",
          "name": "_inputTokenPortal",
          "type": "address"
        },
        {
          "internalType": "uint256",
          "name": "_inAmount",
          "type": "uint256"
        },
        {
          "internalType": "address",
          "name": "_outputTokenPortal",
          "type": "address"
        },
        {
          "internalType": "bytes32",
          "name": "_secretHashForRedeemingMintedNotes",
          "type": "bytes32"
        },
        {
          "internalType": "bytes32",
          "name": "_secretHashForL1ToL2Message",
          "type": "bytes32"
        },
        {
          "internalType": "uint32",
          "name": "_deadlineForL1ToL2Message",
          "type": "uint32"
        },
        {
          "internalType": "address",
          "name": "_canceller",
          "type": "address"
        },
        {
          "internalType": "bool",
          "name": "_withCaller",
          "type": "bool"
        }
      ],
      "name": "depositPrivate",
      "outputs": [
        {
          "internalType": "bytes32",
          "name": "",
          "type": "bytes32"
        }
      ],
      "stateMutability": "payable",
      "type": "function"
    },
    {
      "inputs": [
        {
          "internalType": "address",
          "name": "_inputTokenPortal",
          "type": "address"
        },
        {
          "internalType": "uint256",
          "name": "_inAmount",
          "type": "uint256"
        },
        {
          "internalType": "address",
          "name": "_outputTokenPortal",
          "type": "address"
        },
        {
          "internalType": "bytes32",
          "name": "_aztecRecipient",
          "type": "bytes32"
        },
        {
          "internalType": "bytes32",
          "name": "_secretHashForL1ToL2Message",
          "type": "bytes32"
        },
        {
          "internalType": "uint32",
          "name": "_deadlineForL1ToL2Message",
          "type": "uint32"
        },
        {
          "internalType": "address",
          "name": "_canceller",
          "type": "address"
        },
        {
          "internalType": "bool",
          "name": "_withCaller",
          "type": "bool"
        }
      ],
      "name": "depositPublic",
      "outputs": [
        {
          "internalType": "bytes32",
          "name": "",
          "type": "bytes32"
        }
      ],
      "stateMutability": "payable",
      "type": "function"
    },
    {
      "inputs": [
        {
          "internalType": "address",
          "name": "_registry",
          "type": "address"
        },
        {
          "internalType": "bytes32",
          "name": "_l2StrategyAddress",
          "type": "bytes32"
        }
      ],
      "name": "initialize",
      "outputs": [],
      "stateMutability": "nonpayable",
      "type": "function"
    },
    {
      "inputs": [],
      "name": "l2StrategyAddress",
      "outputs": [
        {
          "internalType": "bytes32",
          "name": "",
          "type": "bytes32"
        }
      ],
      "stateMutability": "view",
      "type": "function"
    },
    {
      "inputs": [],
      "name": "registry",
      "outputs": [
        {
          "internalType": "contract IRegistry",
          "name": "",
          "type": "address"
        }
      ],
      "stateMutability": "view",
      "type": "function"
    },
    {
      "inputs": [],
      "name": "sDAI",
      "outputs": [
        {
          "internalType": "contract ISavingsDai",
          "name": "",
          "type": "address"
        }
      ],
      "stateMutability": "view",
      "type": "function"
    }
  ],
  "bytecode": "0x608060405234801561001057600080fd5b50611a8f806100206000396000f3fe6080604052600436106100865760003560e01c806397fea1ee1161005957806397fea1ee14610141578063be13f47c1461016c578063ce347a3e14610195578063de8b6149146101c0578063e0bab4c4146101eb57610086565b8063076fcbc81461008b57806342f5fc44146100bb5780637b103999146100eb57806389a3027114610116575b600080fd5b6100a560048036038101906100a09190611270565b610216565b6040516100b29190611335565b60405180910390f35b6100d560048036038101906100d09190611270565b6106be565b6040516100e29190611335565b60405180910390f35b3480156100f757600080fd5b50610100610b66565b60405161010d91906113af565b60405180910390f35b34801561012257600080fd5b5061012b610b8a565b60405161013891906113d9565b60405180910390f35b34801561014d57600080fd5b50610156610ba2565b6040516101639190611335565b60405180910390f35b34801561017857600080fd5b50610193600480360381019061018e91906113f4565b610ba8565b005b3480156101a157600080fd5b506101aa610bf3565b6040516101b79190611455565b60405180910390f35b3480156101cc57600080fd5b506101d5610c0b565b6040516101e29190611491565b60405180910390f35b3480156101f757600080fd5b50610200610c23565b60405161020d91906113d9565b60405180910390f35b6000808973ffffffffffffffffffffffffffffffffffffffff16636f307dc36040518163ffffffff1660e01b8152600401602060405180830381865afa158015610264573d6000803e3d6000fd5b505050506040513d601f19601f8201168201806040525081019061028891906114ea565b905060008873ffffffffffffffffffffffffffffffffffffffff16636f307dc36040518163ffffffff1660e01b8152600401602060405180830381865afa1580156102d7573d6000803e3d6000fd5b505050506040513d601f19601f820116820180604052508101906102fb91906114ea565b90508a73ffffffffffffffffffffffffffffffffffffffff1663ead5d359308c60016040518463ffffffff1660e01b815260040161033b93929190611535565b6020604051808303816000875af115801561035a573d6000803e3d6000fd5b505050506040513d601f19601f8201168201806040525081019061037e9190611581565b5060006104328c8c8c8c8c8c8c8c610397576000610399565b335b6040516024016103b09897969594939291906115bd565b6040516020818303038152906040527f076fcbc8000000000000000000000000000000000000000000000000000000007bffffffffffffffffffffffffffffffffffffffffffffffffffffffff19166020820180517bffffffffffffffffffffffffffffffffffffffffffffffffffffffff8381831617835250505050610c3b565b905060008054906101000a900473ffffffffffffffffffffffffffffffffffffffff1673ffffffffffffffffffffffffffffffffffffffff1663a32fbb7b6040518163ffffffff1660e01b8152600401602060405180830381865afa15801561049f573d6000803e3d6000fd5b505050506040513d601f19601f820116820180604052508101906104c39190611679565b73ffffffffffffffffffffffffffffffffffffffff166313608c9d6040518060600160405280604051806040016040528060015481526020016001815250815260200160405180604001604052803073ffffffffffffffffffffffffffffffffffffffff168152602001468152508152602001848152506040518263ffffffff1660e01b81526004016105569190611773565b6020604051808303816000875af1158015610575573d6000803e3d6000fd5b505050506040513d601f19601f820116820180604052508101906105999190611581565b5060006105a6848d610cc5565b90508273ffffffffffffffffffffffffffffffffffffffff1663095ea7b38c836040518363ffffffff1660e01b81526004016105e392919061178e565b6020604051808303816000875af1158015610602573d6000803e3d6000fd5b505050506040513d601f19601f8201168201806040525081019061062691906117cc565b508a73ffffffffffffffffffffffffffffffffffffffff1663b307710c348c848b8d8f6040518763ffffffff1660e01b81526004016106699594939291906117f9565b60206040518083038185885af1158015610687573d6000803e3d6000fd5b50505050506040513d601f19601f820116820180604052508101906106ac9190611581565b94505050505098975050505050505050565b6000808973ffffffffffffffffffffffffffffffffffffffff16636f307dc36040518163ffffffff1660e01b8152600401602060405180830381865afa15801561070c573d6000803e3d6000fd5b505050506040513d601f19601f8201168201806040525081019061073091906114ea565b905060008873ffffffffffffffffffffffffffffffffffffffff16636f307dc36040518163ffffffff1660e01b8152600401602060405180830381865afa15801561077f573d6000803e3d6000fd5b505050506040513d601f19601f820116820180604052508101906107a391906114ea565b90508a73ffffffffffffffffffffffffffffffffffffffff1663ead5d359308c60016040518463ffffffff1660e01b81526004016107e393929190611535565b6020604051808303816000875af1158015610802573d6000803e3d6000fd5b505050506040513d601f19601f820116820180604052508101906108269190611581565b5060006108da8c8c8c8c8c8c8c8c61083f576000610841565b335b6040516024016108589897969594939291906115bd565b6040516020818303038152906040527f42f5fc44000000000000000000000000000000000000000000000000000000007bffffffffffffffffffffffffffffffffffffffffffffffffffffffff19166020820180517bffffffffffffffffffffffffffffffffffffffffffffffffffffffff8381831617835250505050610c3b565b905060008054906101000a900473ffffffffffffffffffffffffffffffffffffffff1673ffffffffffffffffffffffffffffffffffffffff1663a32fbb7b6040518163ffffffff1660e01b8152600401602060405180830381865afa158015610947573d6000803e3d6000fd5b505050506040513d601f19601f8201168201806040525081019061096b9190611679565b73ffffffffffffffffffffffffffffffffffffffff166313608c9d6040518060600160405280604051806040016040528060015481526020016001815250815260200160405180604001604052803073ffffffffffffffffffffffffffffffffffffffff168152602001468152508152602001848152506040518263ffffffff1660e01b81526004016109fe9190611773565b6020604051808303816000875af1158015610a1d573d6000803e3d6000fd5b505050506040513d601f19601f82011682018060405250810190610a419190611581565b506000610a4e848d610cc5565b90508273ffffffffffffffffffffffffffffffffffffffff1663095ea7b38c836040518363ffffffff1660e01b8152600401610a8b92919061178e565b6020604051808303816000875af1158015610aaa573d6000803e3d6000fd5b505050506040513d601f19601f82011682018060405250810190610ace91906117cc565b508a73ffffffffffffffffffffffffffffffffffffffff166328133e72348c848b8d8f6040518763ffffffff1660e01b8152600401610b119594939291906117f9565b60206040518083038185885af1158015610b2f573d6000803e3d6000fd5b50505050506040513d601f19601f82011682018060405250810190610b549190611581565b94505050505098975050505050505050565b60008054906101000a900473ffffffffffffffffffffffffffffffffffffffff1681565b73a0b86991c6218b36c1d19d4a2e9eb0ce3606eb4881565b60015481565b816000806101000a81548173ffffffffffffffffffffffffffffffffffffffff021916908373ffffffffffffffffffffffffffffffffffffffff160217905550806001819055505050565b7339aa39c021dfbae8fac545936693ac917d5e756381565b7383f20f44975d03b1b09e64809b757c47f942beea81565b736b175474e89094c44da98b954eedeac495271d0f81565b60007f30644e72e131a029b85045b68181585d2833e84879b9709143e1f593f0000001600283604051610c6e91906118bd565b602060405180830381855afa158015610c8b573d6000803e3d6000fd5b5050506040513d601f19601f82011682018060405250810190610cae9190611581565b60001c610cbb9190611903565b60001b9050919050565b6000736b175474e89094c44da98b954eedeac495271d0f73ffffffffffffffffffffffffffffffffffffffff168373ffffffffffffffffffffffffffffffffffffffff1603610e3a578273ffffffffffffffffffffffffffffffffffffffff1663095ea7b37383f20f44975d03b1b09e64809b757c47f942beea846040518363ffffffff1660e01b8152600401610d5d92919061178e565b6020604051808303816000875af1158015610d7c573d6000803e3d6000fd5b505050506040513d601f19601f82011682018060405250810190610da091906117cc565b507383f20f44975d03b1b09e64809b757c47f942beea73ffffffffffffffffffffffffffffffffffffffff16636e553f6583306040518363ffffffff1660e01b8152600401610df0929190611934565b6020604051808303816000875af1158015610e0f573d6000803e3d6000fd5b505050506040513d601f19601f82011682018060405250810190610e339190611972565b9050611127565b73a0b86991c6218b36c1d19d4a2e9eb0ce3606eb4873ffffffffffffffffffffffffffffffffffffffff168373ffffffffffffffffffffffffffffffffffffffff16036110e95760007339aa39c021dfbae8fac545936693ac917d5e756373ffffffffffffffffffffffffffffffffffffffff166370a08231306040518263ffffffff1660e01b8152600401610ed091906113d9565b602060405180830381865afa158015610eed573d6000803e3d6000fd5b505050506040513d601f19601f82011682018060405250810190610f119190611972565b90508373ffffffffffffffffffffffffffffffffffffffff1663095ea7b37339aa39c021dfbae8fac545936693ac917d5e7563856040518363ffffffff1660e01b8152600401610f6292919061178e565b6020604051808303816000875af1158015610f81573d6000803e3d6000fd5b505050506040513d601f19601f82011682018060405250810190610fa591906117cc565b5060007339aa39c021dfbae8fac545936693ac917d5e756373ffffffffffffffffffffffffffffffffffffffff1663a0712d68856040518263ffffffff1660e01b8152600401610ff5919061199f565b6020604051808303816000875af1158015611014573d6000803e3d6000fd5b505050506040513d601f19601f820116820180604052508101906110389190611972565b1461104257600080fd5b60007339aa39c021dfbae8fac545936693ac917d5e756373ffffffffffffffffffffffffffffffffffffffff166370a08231306040518263ffffffff1660e01b815260040161109191906113d9565b602060405180830381865afa1580156110ae573d6000803e3d6000fd5b505050506040513d601f19601f820116820180604052508101906110d29190611972565b905081816110e091906119e9565b92505050611126565b826040517fee84f40b00000000000000000000000000000000000000000000000000000000815260040161111d9190611a3e565b60405180910390fd5b5b92915050565b600080fd5b600073ffffffffffffffffffffffffffffffffffffffff82169050919050565b600061115d82611132565b9050919050565b61116d81611152565b811461117857600080fd5b50565b60008135905061118a81611164565b92915050565b6000819050919050565b6111a381611190565b81146111ae57600080fd5b50565b6000813590506111c08161119a565b92915050565b6000819050919050565b6111d9816111c6565b81146111e457600080fd5b50565b6000813590506111f6816111d0565b92915050565b600063ffffffff82169050919050565b611215816111fc565b811461122057600080fd5b50565b6000813590506112328161120c565b92915050565b60008115159050919050565b61124d81611238565b811461125857600080fd5b50565b60008135905061126a81611244565b92915050565b600080600080600080600080610100898b0312156112915761129061112d565b5b600061129f8b828c0161117b565b98505060206112b08b828c016111b1565b97505060406112c18b828c0161117b565b96505060606112d28b828c016111e7565b95505060806112e38b828c016111e7565b94505060a06112f48b828c01611223565b93505060c06113058b828c0161117b565b92505060e06113168b828c0161125b565b9150509295985092959890939650565b61132f816111c6565b82525050565b600060208201905061134a6000830184611326565b92915050565b6000819050919050565b600061137561137061136b84611132565b611350565b611132565b9050919050565b60006113878261135a565b9050919050565b60006113998261137c565b9050919050565b6113a98161138e565b82525050565b60006020820190506113c460008301846113a0565b92915050565b6113d381611152565b82525050565b60006020820190506113ee60008301846113ca565b92915050565b6000806040838503121561140b5761140a61112d565b5b60006114198582860161117b565b925050602061142a858286016111e7565b9150509250929050565b600061143f8261137c565b9050919050565b61144f81611434565b82525050565b600060208201905061146a6000830184611446565b92915050565b600061147b8261137c565b9050919050565b61148b81611470565b82525050565b60006020820190506114a66000830184611482565b92915050565b60006114b782611152565b9050919050565b6114c7816114ac565b81146114d257600080fd5b50565b6000815190506114e4816114be565b92915050565b600060208284031215611500576114ff61112d565b5b600061150e848285016114d5565b91505092915050565b61152081611190565b82525050565b61152f81611238565b82525050565b600060608201905061154a60008301866113ca565b6115576020830185611517565b6115646040830184611526565b949350505050565b60008151905061157b816111d0565b92915050565b6000602082840312156115975761159661112d565b5b60006115a58482850161156c565b91505092915050565b6115b7816111fc565b82525050565b6000610100820190506115d3600083018b6113ca565b6115e0602083018a611517565b6115ed60408301896113ca565b6115fa6060830188611326565b6116076080830187611326565b61161460a08301866115ae565b61162160c08301856113ca565b61162e60e08301846113ca565b9998505050505050505050565b600061164682611152565b9050919050565b6116568161163b565b811461166157600080fd5b50565b6000815190506116738161164d565b92915050565b60006020828403121561168f5761168e61112d565b5b600061169d84828501611664565b91505092915050565b6116af816111c6565b82525050565b6116be81611190565b82525050565b6040820160008201516116da60008501826116a6565b5060208201516116ed60208501826116b5565b50505050565b6116fc81611152565b82525050565b60408201600082015161171860008501826116f3565b50602082015161172b60208501826116b5565b50505050565b60a08201600082015161174760008501826116c4565b50602082015161175a6040850182611702565b50604082015161176d60808501826116a6565b50505050565b600060a0820190506117886000830184611731565b92915050565b60006040820190506117a360008301856113ca565b6117b06020830184611517565b9392505050565b6000815190506117c681611244565b92915050565b6000602082840312156117e2576117e161112d565b5b60006117f0848285016117b7565b91505092915050565b600060a08201905061180e6000830188611326565b61181b6020830187611517565b61182860408301866113ca565b61183560608301856115ae565b6118426080830184611326565b9695505050505050565b600081519050919050565b600081905092915050565b60005b83811015611880578082015181840152602081019050611865565b60008484015250505050565b60006118978261184c565b6118a18185611857565b93506118b1818560208601611862565b80840191505092915050565b60006118c9828461188c565b915081905092915050565b7f4e487b7100000000000000000000000000000000000000000000000000000000600052601260045260246000fd5b600061190e82611190565b915061191983611190565b925082611929576119286118d4565b5b828206905092915050565b60006040820190506119496000830185611517565b61195660208301846113ca565b9392505050565b60008151905061196c8161119a565b92915050565b6000602082840312156119885761198761112d565b5b60006119968482850161195d565b91505092915050565b60006020820190506119b46000830184611517565b92915050565b7f4e487b7100000000000000000000000000000000000000000000000000000000600052601160045260246000fd5b60006119f482611190565b91506119ff83611190565b9250828203905081811115611a1757611a166119ba565b5b92915050565b6000611a288261137c565b9050919050565b611a3881611a1d565b82525050565b6000602082019050611a536000830184611a2f565b9291505056fea2646970667358221220188826f4cf00196593eb7c3f4f25e33f6d93b056d1fcedb7eb3503cf2fe4387164736f6c63430008140033",
  "linkReferences": {},
  "deployedLinkReferences": {}
}